{
  "address": "0xaB83F7041C82D5a915E608D887073B6C52a28459",
  "abi": [
    {
      "anonymous": false,
      "inputs": [
        {
          "indexed": true,
          "internalType": "uint256",
          "name": "_index",
          "type": "uint256"
        },
        {
          "indexed": false,
          "internalType": "uint256",
          "name": "_amount",
          "type": "uint256"
        },
        {
          "indexed": true,
          "internalType": "address",
          "name": "_senderAddress",
          "type": "address"
        }
      ],
      "name": "LinkEvent",
      "type": "event"
    },
    {
      "anonymous": false,
      "inputs": [
        {
          "indexed": false,
          "internalType": "string",
          "name": "message",
          "type": "string"
        }
      ],
      "name": "MessageEvent",
      "type": "event"
    },
    {
      "anonymous": false,
      "inputs": [
        {
          "indexed": true,
          "internalType": "uint256",
          "name": "_index",
          "type": "uint256"
        },
        {
          "indexed": false,
          "internalType": "uint256",
          "name": "_amount",
          "type": "uint256"
        },
        {
          "indexed": true,
          "internalType": "address",
          "name": "_recipientAddress",
          "type": "address"
        }
      ],
      "name": "WithdrawEvent",
      "type": "event"
    },
    {
      "inputs": [],
      "name": "NAME",
      "outputs": [
        {
          "internalType": "string",
          "name": "",
          "type": "string"
        }
      ],
      "stateMutability": "view",
      "type": "function"
    },
    {
      "inputs": [],
      "name": "VERSION",
      "outputs": [
        {
          "internalType": "string",
          "name": "",
          "type": "string"
        }
      ],
      "stateMutability": "view",
      "type": "function"
    },
    {
      "inputs": [
        {
          "internalType": "uint256",
          "name": "_index",
          "type": "uint256"
        },
        {
          "internalType": "address",
          "name": "_recipientAddress",
          "type": "address"
        },
        {
          "internalType": "bytes32",
          "name": "_recipientAddressHash",
          "type": "bytes32"
        },
        {
          "internalType": "bytes",
          "name": "_signature",
          "type": "bytes"
        }
      ],
      "name": "claimLink",
      "outputs": [
        {
          "internalType": "bool",
          "name": "",
          "type": "bool"
        }
      ],
      "stateMutability": "nonpayable",
      "type": "function"
    },
    {
      "inputs": [
        {
          "internalType": "address",
          "name": "_tokenAddress",
          "type": "address"
        },
        {
          "internalType": "uint256",
          "name": "_amount",
          "type": "uint256"
        },
        {
          "internalType": "address",
          "name": "_pubKey20",
          "type": "address"
        }
      ],
      "name": "createLink",
      "outputs": [
        {
          "internalType": "uint256",
          "name": "",
          "type": "uint256"
        }
      ],
      "stateMutability": "nonpayable",
      "type": "function"
    },
    {
      "inputs": [],
      "name": "getAllLinks",
      "outputs": [
        {
          "components": [
            {
              "internalType": "address",
              "name": "pubKey20",
              "type": "address"
            },
            {
              "internalType": "uint256",
              "name": "amount",
              "type": "uint256"
            },
            {
              "internalType": "address",
              "name": "tokenAddress",
              "type": "address"
            },
            {
              "internalType": "bool",
              "name": "claimed",
              "type": "bool"
            },
            {
              "internalType": "uint40",
              "name": "timestamp",
              "type": "uint40"
            },
            {
              "internalType": "address",
              "name": "account",
              "type": "address"
            }
          ],
          "internalType": "struct Safe2LinkModule.Link[]",
          "name": "",
          "type": "tuple[]"
        }
      ],
      "stateMutability": "view",
      "type": "function"
    },
    {
      "inputs": [
        {
          "internalType": "uint256",
          "name": "_index",
          "type": "uint256"
        }
      ],
      "name": "getLink",
      "outputs": [
        {
          "components": [
            {
              "internalType": "address",
              "name": "pubKey20",
              "type": "address"
            },
            {
              "internalType": "uint256",
              "name": "amount",
              "type": "uint256"
            },
            {
              "internalType": "address",
              "name": "tokenAddress",
              "type": "address"
            },
            {
              "internalType": "bool",
              "name": "claimed",
              "type": "bool"
            },
            {
              "internalType": "uint40",
              "name": "timestamp",
              "type": "uint40"
            },
            {
              "internalType": "address",
              "name": "account",
              "type": "address"
            }
          ],
          "internalType": "struct Safe2LinkModule.Link",
          "name": "",
          "type": "tuple"
        }
      ],
      "stateMutability": "view",
      "type": "function"
    },
    {
      "inputs": [],
      "name": "getLinkCount",
      "outputs": [
        {
          "internalType": "uint256",
          "name": "",
          "type": "uint256"
        }
      ],
      "stateMutability": "view",
      "type": "function"
    },
    {
      "inputs": [
        {
          "internalType": "bytes32",
          "name": "messageHash",
          "type": "bytes32"
        },
        {
          "internalType": "bytes",
          "name": "signature",
          "type": "bytes"
        }
      ],
      "name": "getSigner",
      "outputs": [
        {
          "internalType": "address",
          "name": "",
          "type": "address"
        }
      ],
      "stateMutability": "pure",
      "type": "function"
    },
    {
      "inputs": [
        {
          "internalType": "uint256",
          "name": "",
          "type": "uint256"
        }
      ],
      "name": "links",
      "outputs": [
        {
          "internalType": "address",
          "name": "pubKey20",
          "type": "address"
        },
        {
          "internalType": "uint256",
          "name": "amount",
          "type": "uint256"
        },
        {
          "internalType": "address",
          "name": "tokenAddress",
          "type": "address"
        },
        {
          "internalType": "bool",
          "name": "claimed",
          "type": "bool"
        },
        {
          "internalType": "uint40",
          "name": "timestamp",
          "type": "uint40"
        },
        {
          "internalType": "address",
          "name": "account",
          "type": "address"
        }
      ],
      "stateMutability": "view",
      "type": "function"
    },
    {
      "inputs": [
        {
          "internalType": "address",
          "name": "",
          "type": "address"
        },
        {
          "internalType": "address",
          "name": "",
          "type": "address"
        },
        {
          "internalType": "uint256",
          "name": "",
          "type": "uint256"
        }
      ],
      "name": "tokens",
      "outputs": [
        {
          "internalType": "address",
          "name": "",
          "type": "address"
        }
      ],
      "stateMutability": "view",
      "type": "function"
    }
  ],
  "args": [],
  "numDeployments": 1,
  "solcInputHash": "a20d82a3f5e91f7babc3979d40ae30a8",
  "bytecode": "0x608060405234801561001057600080fd5b506122fd806100206000396000f3fe608060405234801561001057600080fd5b506004361061009e5760003560e01c8063a3f4df7e11610066578063a3f4df7e14610186578063ef51b79d146101a4578063f56e81fa146101c2578063f7b2ec0d146101f2578063ffa1ad74146102225761009e565b806326091678146100a3578063393b6df3146100d357806348d9cb941461010357806355c3d97a14610121578063881d8a4014610151575b600080fd5b6100bd60048036038101906100b8919061152f565b610240565b6040516100ca91906115cd565b60405180910390f35b6100ed60048036038101906100e891906115e8565b6105fb565b6040516100fa91906116dd565b60405180910390f35b61010b610787565b6040516101189190611822565b60405180910390f35b61013b60048036038101906101369190611844565b610936565b60405161014891906118a6565b60405180910390f35b61016b600480360381019061016691906115e8565b610b7f565b60405161017d969594939291906118df565b60405180910390f35b61018e610c49565b60405161019b91906119bf565b60405180910390f35b6101ac610c82565b6040516101b991906118a6565b60405180910390f35b6101dc60048036038101906101d791906119e1565b610c8f565b6040516101e99190611a34565b60405180910390f35b61020c60048036038101906102079190611a4f565b610cea565b6040516102199190611a34565b60405180910390f35b61022a610d03565b60405161023791906119bf565b60405180910390f35b60006001805490508510610289576040517f08c379a000000000000000000000000000000000000000000000000000000000815260040161028090611af7565b60405180910390fd5b60006001868154811061029f5761029e611b17565b5b90600052602060002090600402016040518060c00160405290816000820160009054906101000a900473ffffffffffffffffffffffffffffffffffffffff1673ffffffffffffffffffffffffffffffffffffffff1673ffffffffffffffffffffffffffffffffffffffff168152602001600182015481526020016002820160009054906101000a900473ffffffffffffffffffffffffffffffffffffffff1673ffffffffffffffffffffffffffffffffffffffff1673ffffffffffffffffffffffffffffffffffffffff1681526020016002820160149054906101000a900460ff161515151581526020016002820160159054906101000a900464ffffffffff1664ffffffffff1664ffffffffff1681526020016003820160009054906101000a900473ffffffffffffffffffffffffffffffffffffffff1673ffffffffffffffffffffffffffffffffffffffff1673ffffffffffffffffffffffffffffffffffffffff16815250509050600015158160600151151514610455576040517f08c379a000000000000000000000000000000000000000000000000000000000815260040161044c90611b92565b60405180910390fd5b610484856040516020016104699190611bfa565b60405160208183030381529060405280519060200120610d3c565b84146104c5576040517f08c379a00000000000000000000000000000000000000000000000000000000081526004016104bc90611c61565b60405180910390fd5b60006104d18585610cea565b9050816000015173ffffffffffffffffffffffffffffffffffffffff168173ffffffffffffffffffffffffffffffffffffffff1614610545576040517f08c379a000000000000000000000000000000000000000000000000000000000815260040161053c90611ccd565b60405180910390fd5b8573ffffffffffffffffffffffffffffffffffffffff16877fa62bf33e3860a18b08244c1b59b8aa4920be374252eb534e0ab47d5f7a18ca18846020015160405161059091906118a6565b60405180910390a360018088815481106105ad576105ac611b17565b5b906000526020600020906004020160020160146101000a81548160ff0219169083151502179055506105ed8260a001518360400151888560200151610d72565b600192505050949350505050565b61060361128a565b6001828154811061061757610616611b17565b5b90600052602060002090600402016040518060c00160405290816000820160009054906101000a900473ffffffffffffffffffffffffffffffffffffffff1673ffffffffffffffffffffffffffffffffffffffff1673ffffffffffffffffffffffffffffffffffffffff168152602001600182015481526020016002820160009054906101000a900473ffffffffffffffffffffffffffffffffffffffff1673ffffffffffffffffffffffffffffffffffffffff1673ffffffffffffffffffffffffffffffffffffffff1681526020016002820160149054906101000a900460ff161515151581526020016002820160159054906101000a900464ffffffffff1664ffffffffff1664ffffffffff1681526020016003820160009054906101000a900473ffffffffffffffffffffffffffffffffffffffff1673ffffffffffffffffffffffffffffffffffffffff1673ffffffffffffffffffffffffffffffffffffffff16815250509050919050565b60606001805480602002602001604051908101604052809291908181526020016000905b8282101561092d57838290600052602060002090600402016040518060c00160405290816000820160009054906101000a900473ffffffffffffffffffffffffffffffffffffffff1673ffffffffffffffffffffffffffffffffffffffff1673ffffffffffffffffffffffffffffffffffffffff168152602001600182015481526020016002820160009054906101000a900473ffffffffffffffffffffffffffffffffffffffff1673ffffffffffffffffffffffffffffffffffffffff1673ffffffffffffffffffffffffffffffffffffffff1681526020016002820160149054906101000a900460ff161515151581526020016002820160159054906101000a900464ffffffffff1664ffffffffff1664ffffffffff1681526020016003820160009054906101000a900473ffffffffffffffffffffffffffffffffffffffff1673ffffffffffffffffffffffffffffffffffffffff1673ffffffffffffffffffffffffffffffffffffffff1681525050815260200190600101906107ab565b50505050905090565b600060016040518060c001604052808473ffffffffffffffffffffffffffffffffffffffff1681526020018581526020018673ffffffffffffffffffffffffffffffffffffffff1681526020016000151581526020014264ffffffffff1681526020013373ffffffffffffffffffffffffffffffffffffffff16815250908060018154018082558091505060019003906000526020600020906004020160009091909190915060008201518160000160006101000a81548173ffffffffffffffffffffffffffffffffffffffff021916908373ffffffffffffffffffffffffffffffffffffffff1602179055506020820151816001015560408201518160020160006101000a81548173ffffffffffffffffffffffffffffffffffffffff021916908373ffffffffffffffffffffffffffffffffffffffff16021790555060608201518160020160146101000a81548160ff02191690831515021790555060808201518160020160156101000a81548164ffffffffff021916908364ffffffffff16021790555060a08201518160030160006101000a81548173ffffffffffffffffffffffffffffffffffffffff021916908373ffffffffffffffffffffffffffffffffffffffff16021790555050503373ffffffffffffffffffffffffffffffffffffffff1660018080549050610b2e9190611d1c565b7fd0b52dbf7f8c29477b6ae9116c857532274475062b33c1f29e0c92f745c1ffbf85604051610b5d91906118a6565b60405180910390a360018080549050610b769190611d1c565b90509392505050565b60018181548110610b8f57600080fd5b90600052602060002090600402016000915090508060000160009054906101000a900473ffffffffffffffffffffffffffffffffffffffff16908060010154908060020160009054906101000a900473ffffffffffffffffffffffffffffffffffffffff16908060020160149054906101000a900460ff16908060020160159054906101000a900464ffffffffff16908060030160009054906101000a900473ffffffffffffffffffffffffffffffffffffffff16905086565b6040518060400160405280601081526020017f53616665324c696e6b204d6f64756c650000000000000000000000000000000081525081565b6000600180549050905090565b60006020528260005260406000206020528160005260406000208181548110610cb757600080fd5b90600052602060002001600092509250509054906101000a900473ffffffffffffffffffffffffffffffffffffffff1681565b600080610cf78484610fca565b90508091505092915050565b6040518060400160405280600581526020017f302e312e3000000000000000000000000000000000000000000000000000000081525081565b60007f19457468657265756d205369676e6564204d6573736167653a0a33320000000060005281601c52603c6000209050919050565b600073ffffffffffffffffffffffffffffffffffffffff168373ffffffffffffffffffffffffffffffffffffffff1603610e6b578373ffffffffffffffffffffffffffffffffffffffff1663468721a7838360006040518463ffffffff1660e01b8152600401610de493929190611e5d565b6020604051808303816000875af1158015610e03573d6000803e3d6000fd5b505050506040513d601f19601f82011682018060405250810190610e279190611ed3565b610e66576040517f08c379a0000000000000000000000000000000000000000000000000000000008152600401610e5d90611f4c565b60405180910390fd5b610fc4565b60008282604051602401610e80929190611f8d565b6040516020818303038152906040527fa9059cbb000000000000000000000000000000000000000000000000000000007bffffffffffffffffffffffffffffffffffffffffffffffffffffffff19166020820180517bffffffffffffffffffffffffffffffffffffffffffffffffffffffff838183161783525050505090508473ffffffffffffffffffffffffffffffffffffffff1663468721a78560008460006040518563ffffffff1660e01b8152600401610f409493929190612035565b6020604051808303816000875af1158015610f5f573d6000803e3d6000fd5b505050506040513d601f19601f82011682018060405250810190610f839190611ed3565b610fc2576040517f08c379a0000000000000000000000000000000000000000000000000000000008152600401610fb9906120cd565b60405180910390fd5b505b50505050565b6000806000610fd98585610ff1565b91509150610fe681611042565b819250505092915050565b60008060418351036110325760008060006020860151925060408601519150606086015160001a9050611026878285856111a8565b9450945050505061103b565b60006002915091505b9250929050565b6000600481111561105657611055611de6565b5b81600481111561106957611068611de6565b5b03156111a5576001600481111561108357611082611de6565b5b81600481111561109657611095611de6565b5b036110d6576040517f08c379a00000000000000000000000000000000000000000000000000000000081526004016110cd90612139565b60405180910390fd5b600260048111156110ea576110e9611de6565b5b8160048111156110fd576110fc611de6565b5b0361113d576040517f08c379a0000000000000000000000000000000000000000000000000000000008152600401611134906121a5565b60405180910390fd5b6003600481111561115157611150611de6565b5b81600481111561116457611163611de6565b5b036111a4576040517f08c379a000000000000000000000000000000000000000000000000000000000815260040161119b90612237565b60405180910390fd5b5b50565b6000807f7fffffffffffffffffffffffffffffff5d576e7357a4501ddfe92f46681b20a08360001c11156111e3576000600391509150611281565b6000600187878787604051600081526020016040526040516112089493929190612282565b6020604051602081039080840390855afa15801561122a573d6000803e3d6000fd5b505050602060405103519050600073ffffffffffffffffffffffffffffffffffffffff168173ffffffffffffffffffffffffffffffffffffffff160361127857600060019250925050611281565b80600092509250505b94509492505050565b6040518060c00160405280600073ffffffffffffffffffffffffffffffffffffffff16815260200160008152602001600073ffffffffffffffffffffffffffffffffffffffff168152602001600015158152602001600064ffffffffff168152602001600073ffffffffffffffffffffffffffffffffffffffff1681525090565b6000604051905090565b600080fd5b600080fd5b6000819050919050565b6113328161131f565b811461133d57600080fd5b50565b60008135905061134f81611329565b92915050565b600073ffffffffffffffffffffffffffffffffffffffff82169050919050565b600061138082611355565b9050919050565b61139081611375565b811461139b57600080fd5b50565b6000813590506113ad81611387565b92915050565b6000819050919050565b6113c6816113b3565b81146113d157600080fd5b50565b6000813590506113e3816113bd565b92915050565b600080fd5b600080fd5b6000601f19601f8301169050919050565b7f4e487b7100000000000000000000000000000000000000000000000000000000600052604160045260246000fd5b61143c826113f3565b810181811067ffffffffffffffff8211171561145b5761145a611404565b5b80604052505050565b600061146e61130b565b905061147a8282611433565b919050565b600067ffffffffffffffff82111561149a57611499611404565b5b6114a3826113f3565b9050602081019050919050565b82818337600083830152505050565b60006114d26114cd8461147f565b611464565b9050828152602081018484840111156114ee576114ed6113ee565b5b6114f98482856114b0565b509392505050565b600082601f830112611516576115156113e9565b5b81356115268482602086016114bf565b91505092915050565b6000806000806080858703121561154957611548611315565b5b600061155787828801611340565b94505060206115688782880161139e565b9350506040611579878288016113d4565b925050606085013567ffffffffffffffff81111561159a5761159961131a565b5b6115a687828801611501565b91505092959194509250565b60008115159050919050565b6115c7816115b2565b82525050565b60006020820190506115e260008301846115be565b92915050565b6000602082840312156115fe576115fd611315565b5b600061160c84828501611340565b91505092915050565b61161e81611375565b82525050565b61162d8161131f565b82525050565b61163c816115b2565b82525050565b600064ffffffffff82169050919050565b61165c81611642565b82525050565b60c0820160008201516116786000850182611615565b50602082015161168b6020850182611624565b50604082015161169e6040850182611615565b5060608201516116b16060850182611633565b5060808201516116c46080850182611653565b5060a08201516116d760a0850182611615565b50505050565b600060c0820190506116f26000830184611662565b92915050565b600081519050919050565b600082825260208201905092915050565b6000819050602082019050919050565b60c08201600082015161173a6000850182611615565b50602082015161174d6020850182611624565b5060408201516117606040850182611615565b5060608201516117736060850182611633565b5060808201516117866080850182611653565b5060a082015161179960a0850182611615565b50505050565b60006117ab8383611724565b60c08301905092915050565b6000602082019050919050565b60006117cf826116f8565b6117d98185611703565b93506117e483611714565b8060005b838110156118155781516117fc888261179f565b9750611807836117b7565b9250506001810190506117e8565b5085935050505092915050565b6000602082019050818103600083015261183c81846117c4565b905092915050565b60008060006060848603121561185d5761185c611315565b5b600061186b8682870161139e565b935050602061187c86828701611340565b925050604061188d8682870161139e565b9150509250925092565b6118a08161131f565b82525050565b60006020820190506118bb6000830184611897565b92915050565b6118ca81611375565b82525050565b6118d981611642565b82525050565b600060c0820190506118f460008301896118c1565b6119016020830188611897565b61190e60408301876118c1565b61191b60608301866115be565b61192860808301856118d0565b61193560a08301846118c1565b979650505050505050565b600081519050919050565b600082825260208201905092915050565b60005b8381101561197a57808201518184015260208101905061195f565b60008484015250505050565b600061199182611940565b61199b818561194b565b93506119ab81856020860161195c565b6119b4816113f3565b840191505092915050565b600060208201905081810360008301526119d98184611986565b905092915050565b6000806000606084860312156119fa576119f9611315565b5b6000611a088682870161139e565b9350506020611a198682870161139e565b9250506040611a2a86828701611340565b9150509250925092565b6000602082019050611a4960008301846118c1565b92915050565b60008060408385031215611a6657611a65611315565b5b6000611a74858286016113d4565b925050602083013567ffffffffffffffff811115611a9557611a9461131a565b5b611aa185828601611501565b9150509250929050565b7f4c494e4b20494e44455820444f4553204e4f5420455849535400000000000000600082015250565b6000611ae160198361194b565b9150611aec82611aab565b602082019050919050565b60006020820190508181036000830152611b1081611ad4565b9050919050565b7f4e487b7100000000000000000000000000000000000000000000000000000000600052603260045260246000fd5b7f4c494e4b20414c52454144592057495448445241574e00000000000000000000600082015250565b6000611b7c60168361194b565b9150611b8782611b46565b602082019050919050565b60006020820190508181036000830152611bab81611b6f565b9050919050565b60008160601b9050919050565b6000611bca82611bb2565b9050919050565b6000611bdc82611bbf565b9050919050565b611bf4611bef82611375565b611bd1565b82525050565b6000611c068284611be3565b60148201915081905092915050565b7f48415348455320444f204e4f54204d4154434800000000000000000000000000600082015250565b6000611c4b60138361194b565b9150611c5682611c15565b602082019050919050565b60006020820190508181036000830152611c7a81611c3e565b9050919050565b7f57524f4e47205349474e41545552450000000000000000000000000000000000600082015250565b6000611cb7600f8361194b565b9150611cc282611c81565b602082019050919050565b60006020820190508181036000830152611ce681611caa565b9050919050565b7f4e487b7100000000000000000000000000000000000000000000000000000000600052601160045260246000fd5b6000611d278261131f565b9150611d328361131f565b9250828203905081811115611d4a57611d49611ced565b5b92915050565b6000819050919050565b6000611d75611d70611d6b84611355565b611d50565b611355565b9050919050565b6000611d8782611d5a565b9050919050565b6000611d9982611d7c565b9050919050565b611da981611d8e565b82525050565b600082825260208201905092915050565b50565b6000611dd0600083611daf565b9150611ddb82611dc0565b600082019050919050565b7f4e487b7100000000000000000000000000000000000000000000000000000000600052602160045260246000fd5b60028110611e2657611e25611de6565b5b50565b6000819050611e3782611e15565b919050565b6000611e4782611e29565b9050919050565b611e5781611e3c565b82525050565b6000608082019050611e726000830186611da0565b611e7f6020830185611897565b8181036040830152611e9081611dc3565b9050611e9f6060830184611e4e565b949350505050565b611eb0816115b2565b8114611ebb57600080fd5b50565b600081519050611ecd81611ea7565b92915050565b600060208284031215611ee957611ee8611315565b5b6000611ef784828501611ebe565b91505092915050565b7f436f756c64206e6f742065786563757465206574686572207472616e73666572600082015250565b6000611f3660208361194b565b9150611f4182611f00565b602082019050919050565b60006020820190508181036000830152611f6581611f29565b9050919050565b6000611f7782611355565b9050919050565b611f8781611f6c565b82525050565b6000604082019050611fa26000830185611f7e565b611faf6020830184611897565b9392505050565b6000819050919050565b6000611fdb611fd6611fd184611fb6565b611d50565b61131f565b9050919050565b611feb81611fc0565b82525050565b600081519050919050565b600061200782611ff1565b6120118185611daf565b935061202181856020860161195c565b61202a816113f3565b840191505092915050565b600060808201905061204a60008301876118c1565b6120576020830186611fe2565b81810360408301526120698185611ffc565b90506120786060830184611e4e565b95945050505050565b7f436f756c64206e6f74206578656375746520746f6b656e207472616e73666572600082015250565b60006120b760208361194b565b91506120c282612081565b602082019050919050565b600060208201905081810360008301526120e6816120aa565b9050919050565b7f45434453413a20696e76616c6964207369676e61747572650000000000000000600082015250565b600061212360188361194b565b915061212e826120ed565b602082019050919050565b6000602082019050818103600083015261215281612116565b9050919050565b7f45434453413a20696e76616c6964207369676e6174757265206c656e67746800600082015250565b600061218f601f8361194b565b915061219a82612159565b602082019050919050565b600060208201905081810360008301526121be81612182565b9050919050565b7f45434453413a20696e76616c6964207369676e6174757265202773272076616c60008201527f7565000000000000000000000000000000000000000000000000000000000000602082015250565b600061222160228361194b565b915061222c826121c5565b604082019050919050565b6000602082019050818103600083015261225081612214565b9050919050565b612260816113b3565b82525050565b600060ff82169050919050565b61227c81612266565b82525050565b60006080820190506122976000830187612257565b6122a46020830186612273565b6122b16040830185612257565b6122be6060830184612257565b9594505050505056fea2646970667358221220d4cfcae48dcd9cb39e8e8efbdf1eeec788e79274901739cdd0ee4771a47cfb8064736f6c63430008130033",
  "devdoc": {
    "kind": "dev",
    "methods": {
      "claimLink(uint256,address,bytes32,bytes)": {
        "params": {
          "_index": "uint256 index of the deposit",
          "_recipientAddress": "address of the recipient",
          "_recipientAddressHash": "bytes32 hash of the recipient address (prefixed with \"\\x19Ethereum Signed Message:\\n32\")",
          "_signature": "bytes signature of the recipient address (65 bytes)"
        },
        "returns": {
          "_0": "bool true if successful"
        }
      },
      "createLink(address,uint256,address)": {
        "details": "For token deposits, allowance must be set before calling this function",
        "params": {
          "_amount": "uint256 of the amount of tokens being sent (if erc20)",
          "_pubKey20": "last 20 bytes of the public key of the deposit signer",
          "_tokenAddress": "address of the token being sent. 0x0 for eth"
        },
        "returns": {
          "_0": "uint256 index of the deposit"
        }
      },
      "getAllLinks()": {
        "returns": {
          "_0": "Links[] array of deposits"
        }
      },
      "getLink(uint256)": {
        "params": {
          "_index": "uint256 index of the deposit"
        },
        "returns": {
          "_0": "Deposit struct"
        }
      },
      "getLinkCount()": {
        "returns": {
          "_0": "uint256 number of deposits"
        }
      },
      "getSigner(bytes32,bytes)": {
        "params": {
          "messageHash": "bytes32 hash of the message",
          "signature": "bytes signature of the message"
        },
        "returns": {
          "_0": "address of the signer"
        }
      }
    },
    "version": 1
  },
  "userdoc": {
    "kind": "user",
    "methods": {
      "createLink(address,uint256,address)": {
        "notice": "Function to make a deposit"
      },
      "getAllLinks()": {
        "notice": "Get all links in contract"
      },
      "getLink(uint256)": {
        "notice": "Simple way to get single deposit"
      },
      "getLinkCount()": {
        "notice": "Simple way to get the total number of deposits"
      }
    },
    "version": 1
  },
  "storageLayout": {
    "storage": [
      {
        "astId": 2317,
        "contract": "contracts/Safe2LinkModule.sol:Safe2LinkModule",
        "label": "tokens",
        "offset": 0,
        "slot": "0",
        "type": "t_mapping(t_address,t_mapping(t_address,t_array(t_address)dyn_storage))"
      },
      {
        "astId": 2334,
        "contract": "contracts/Safe2LinkModule.sol:Safe2LinkModule",
        "label": "links",
        "offset": 0,
        "slot": "1",
        "type": "t_array(t_struct(Link)2330_storage)dyn_storage"
      }
    ],
    "types": {
      "t_address": {
        "encoding": "inplace",
        "label": "address",
        "numberOfBytes": "20"
      },
      "t_array(t_address)dyn_storage": {
        "base": "t_address",
        "encoding": "dynamic_array",
        "label": "address[]",
        "numberOfBytes": "32"
      },
      "t_array(t_struct(Link)2330_storage)dyn_storage": {
        "base": "t_struct(Link)2330_storage",
        "encoding": "dynamic_array",
        "label": "struct Safe2LinkModule.Link[]",
        "numberOfBytes": "32"
      },
      "t_bool": {
        "encoding": "inplace",
        "label": "bool",
        "numberOfBytes": "1"
      },
      "t_mapping(t_address,t_array(t_address)dyn_storage)": {
        "encoding": "mapping",
        "key": "t_address",
        "label": "mapping(address => address[])",
        "numberOfBytes": "32",
        "value": "t_array(t_address)dyn_storage"
      },
      "t_mapping(t_address,t_mapping(t_address,t_array(t_address)dyn_storage))": {
        "encoding": "mapping",
        "key": "t_address",
        "label": "mapping(address => mapping(address => address[]))",
        "numberOfBytes": "32",
        "value": "t_mapping(t_address,t_array(t_address)dyn_storage)"
      },
      "t_struct(Link)2330_storage": {
        "encoding": "inplace",
        "label": "struct Safe2LinkModule.Link",
        "members": [
          {
            "astId": 2319,
            "contract": "contracts/Safe2LinkModule.sol:Safe2LinkModule",
            "label": "pubKey20",
            "offset": 0,
            "slot": "0",
            "type": "t_address"
          },
          {
            "astId": 2321,
            "contract": "contracts/Safe2LinkModule.sol:Safe2LinkModule",
            "label": "amount",
            "offset": 0,
            "slot": "1",
            "type": "t_uint256"
          },
          {
            "astId": 2323,
            "contract": "contracts/Safe2LinkModule.sol:Safe2LinkModule",
            "label": "tokenAddress",
            "offset": 0,
            "slot": "2",
            "type": "t_address"
          },
          {
            "astId": 2325,
            "contract": "contracts/Safe2LinkModule.sol:Safe2LinkModule",
            "label": "claimed",
            "offset": 20,
            "slot": "2",
            "type": "t_bool"
          },
          {
            "astId": 2327,
            "contract": "contracts/Safe2LinkModule.sol:Safe2LinkModule",
            "label": "timestamp",
            "offset": 21,
            "slot": "2",
            "type": "t_uint40"
          },
          {
            "astId": 2329,
            "contract": "contracts/Safe2LinkModule.sol:Safe2LinkModule",
            "label": "account",
            "offset": 0,
            "slot": "3",
            "type": "t_address"
          }
        ],
        "numberOfBytes": "128"
      },
      "t_uint256": {
        "encoding": "inplace",
        "label": "uint256",
        "numberOfBytes": "32"
      },
      "t_uint40": {
        "encoding": "inplace",
        "label": "uint40",
        "numberOfBytes": "5"
      }
    }
  }
}