{
  "_format": "hh-sol-artifact-1",
  "contractName": "Safe2LinkModule",
  "sourceName": "contracts/Safe2LinkModule.sol",
  "abi": [
    {
      "anonymous": false,
      "inputs": [
        {
          "indexed": true,
          "internalType": "uint256",
          "name": "_index",
          "type": "uint256"
        },
        {
          "indexed": false,
          "internalType": "uint256",
          "name": "_amount",
          "type": "uint256"
        },
        {
          "indexed": true,
          "internalType": "address",
          "name": "_senderAddress",
          "type": "address"
        }
      ],
      "name": "DepositEvent",
      "type": "event"
    },
    {
      "anonymous": false,
      "inputs": [
        {
          "indexed": false,
          "internalType": "string",
          "name": "message",
          "type": "string"
        }
      ],
      "name": "MessageEvent",
      "type": "event"
    },
    {
      "anonymous": false,
      "inputs": [
        {
          "indexed": true,
          "internalType": "uint256",
          "name": "_index",
          "type": "uint256"
        },
        {
          "indexed": false,
          "internalType": "uint256",
          "name": "_amount",
          "type": "uint256"
        },
        {
          "indexed": true,
          "internalType": "address",
          "name": "_recipientAddress",
          "type": "address"
        }
      ],
      "name": "WithdrawEvent",
      "type": "event"
    },
    {
      "inputs": [],
      "name": "NAME",
      "outputs": [
        {
          "internalType": "string",
          "name": "",
          "type": "string"
        }
      ],
      "stateMutability": "view",
      "type": "function"
    },
    {
      "inputs": [],
      "name": "VERSION",
      "outputs": [
        {
          "internalType": "string",
          "name": "",
          "type": "string"
        }
      ],
      "stateMutability": "view",
      "type": "function"
    },
    {
      "inputs": [
        {
          "internalType": "uint256",
          "name": "_index",
          "type": "uint256"
        },
        {
          "internalType": "address",
          "name": "_recipientAddress",
          "type": "address"
        },
        {
          "internalType": "bytes32",
          "name": "_recipientAddressHash",
          "type": "bytes32"
        },
        {
          "internalType": "bytes",
          "name": "_signature",
          "type": "bytes"
        }
      ],
      "name": "claimLink",
      "outputs": [
        {
          "internalType": "bool",
          "name": "",
          "type": "bool"
        }
      ],
      "stateMutability": "nonpayable",
      "type": "function"
    },
    {
      "inputs": [
        {
          "internalType": "address",
          "name": "_tokenAddress",
          "type": "address"
        },
        {
          "internalType": "uint256",
          "name": "_amount",
          "type": "uint256"
        },
        {
          "internalType": "address",
          "name": "_pubKey20",
          "type": "address"
        }
      ],
      "name": "createLink",
      "outputs": [
        {
          "internalType": "uint256",
          "name": "",
          "type": "uint256"
        }
      ],
      "stateMutability": "nonpayable",
      "type": "function"
    },
    {
      "inputs": [
        {
          "internalType": "uint256",
          "name": "",
          "type": "uint256"
        }
      ],
      "name": "deposits",
      "outputs": [
        {
          "internalType": "address",
          "name": "pubKey20",
          "type": "address"
        },
        {
          "internalType": "uint256",
          "name": "amount",
          "type": "uint256"
        },
        {
          "internalType": "address",
          "name": "tokenAddress",
          "type": "address"
        },
        {
          "internalType": "bool",
          "name": "claimed",
          "type": "bool"
        },
        {
          "internalType": "uint40",
          "name": "timestamp",
          "type": "uint40"
        },
        {
          "internalType": "address",
          "name": "account",
          "type": "address"
        }
      ],
      "stateMutability": "view",
      "type": "function"
    },
    {
      "inputs": [
        {
          "internalType": "contract GnosisSafe",
          "name": "safe",
          "type": "address"
        },
        {
          "internalType": "address",
          "name": "token",
          "type": "address"
        },
        {
          "internalType": "address payable",
          "name": "to",
          "type": "address"
        },
        {
          "internalType": "uint96",
          "name": "amount",
          "type": "uint96"
        },
        {
          "internalType": "address",
          "name": "paymentToken",
          "type": "address"
        },
        {
          "internalType": "uint96",
          "name": "payment",
          "type": "uint96"
        },
        {
          "internalType": "bytes",
          "name": "signature",
          "type": "bytes"
        }
      ],
      "name": "executeAllowanceTransfer",
      "outputs": [],
      "stateMutability": "nonpayable",
      "type": "function"
    },
    {
      "inputs": [],
      "name": "getAllDeposits",
      "outputs": [
        {
          "components": [
            {
              "internalType": "address",
              "name": "pubKey20",
              "type": "address"
            },
            {
              "internalType": "uint256",
              "name": "amount",
              "type": "uint256"
            },
            {
              "internalType": "address",
              "name": "tokenAddress",
              "type": "address"
            },
            {
              "internalType": "bool",
              "name": "claimed",
              "type": "bool"
            },
            {
              "internalType": "uint40",
              "name": "timestamp",
              "type": "uint40"
            },
            {
              "internalType": "address",
              "name": "account",
              "type": "address"
            }
          ],
          "internalType": "struct Safe2LinkModule.Deposit[]",
          "name": "",
          "type": "tuple[]"
        }
      ],
      "stateMutability": "view",
      "type": "function"
    },
    {
      "inputs": [
        {
          "internalType": "uint256",
          "name": "_index",
          "type": "uint256"
        }
      ],
      "name": "getDeposit",
      "outputs": [
        {
          "components": [
            {
              "internalType": "address",
              "name": "pubKey20",
              "type": "address"
            },
            {
              "internalType": "uint256",
              "name": "amount",
              "type": "uint256"
            },
            {
              "internalType": "address",
              "name": "tokenAddress",
              "type": "address"
            },
            {
              "internalType": "bool",
              "name": "claimed",
              "type": "bool"
            },
            {
              "internalType": "uint40",
              "name": "timestamp",
              "type": "uint40"
            },
            {
              "internalType": "address",
              "name": "account",
              "type": "address"
            }
          ],
          "internalType": "struct Safe2LinkModule.Deposit",
          "name": "",
          "type": "tuple"
        }
      ],
      "stateMutability": "view",
      "type": "function"
    },
    {
      "inputs": [],
      "name": "getDepositCount",
      "outputs": [
        {
          "internalType": "uint256",
          "name": "",
          "type": "uint256"
        }
      ],
      "stateMutability": "view",
      "type": "function"
    },
    {
      "inputs": [
        {
          "internalType": "bytes32",
          "name": "messageHash",
          "type": "bytes32"
        },
        {
          "internalType": "bytes",
          "name": "signature",
          "type": "bytes"
        }
      ],
      "name": "getSigner",
      "outputs": [
        {
          "internalType": "address",
          "name": "",
          "type": "address"
        }
      ],
      "stateMutability": "pure",
      "type": "function"
    },
    {
      "inputs": [
        {
          "internalType": "address",
          "name": "",
          "type": "address"
        },
        {
          "internalType": "address",
          "name": "",
          "type": "address"
        },
        {
          "internalType": "uint256",
          "name": "",
          "type": "uint256"
        }
      ],
      "name": "tokens",
      "outputs": [
        {
          "internalType": "address",
          "name": "",
          "type": "address"
        }
      ],
      "stateMutability": "view",
      "type": "function"
    }
  ],
  "bytecode": "0x608060405234801561001057600080fd5b506124b3806100206000396000f3fe608060405234801561001057600080fd5b50600436106100a95760003560e01c8063b02c43d011610071578063b02c43d01461017a578063d3f3f5ea146101af578063f56e81fa146101cd578063f7b2ec0d146101fd578063f8bec3c91461022d578063ffa1ad7414610249576100a9565b806326091678146100ae57806355c3d97a146100de5780639363a1411461010e5780639f9fb9681461012c578063a3f4df7e1461015c575b600080fd5b6100c860048036038101906100c39190611579565b610267565b6040516100d59190611617565b60405180910390f35b6100f860048036038101906100f39190611632565b610622565b6040516101059190611694565b60405180910390f35b61011661086b565b6040516101239190611694565b60405180910390f35b610146600480360381019061014191906116af565b610878565b60405161015391906117a4565b60405180910390f35b610164610a04565b604051610171919061183e565b60405180910390f35b610194600480360381019061018f91906116af565b610a3d565b6040516101a69695949392919061187e565b60405180910390f35b6101b7610b07565b6040516101c49190611a09565b60405180910390f35b6101e760048036038101906101e29190611a2b565b610cb6565b6040516101f49190611a7e565b60405180910390f35b61021760048036038101906102129190611a99565b610d11565b6040516102249190611a7e565b60405180910390f35b61024760048036038101906102429190611bb5565b610d2a565b005b610251610d4d565b60405161025e919061183e565b60405180910390f35b600060018054905085106102b0576040517f08c379a00000000000000000000000000000000000000000000000000000000081526004016102a790611cbf565b60405180910390fd5b6000600186815481106102c6576102c5611cdf565b5b90600052602060002090600402016040518060c00160405290816000820160009054906101000a900473ffffffffffffffffffffffffffffffffffffffff1673ffffffffffffffffffffffffffffffffffffffff1673ffffffffffffffffffffffffffffffffffffffff168152602001600182015481526020016002820160009054906101000a900473ffffffffffffffffffffffffffffffffffffffff1673ffffffffffffffffffffffffffffffffffffffff1673ffffffffffffffffffffffffffffffffffffffff1681526020016002820160149054906101000a900460ff161515151581526020016002820160159054906101000a900464ffffffffff1664ffffffffff1664ffffffffff1681526020016003820160009054906101000a900473ffffffffffffffffffffffffffffffffffffffff1673ffffffffffffffffffffffffffffffffffffffff1673ffffffffffffffffffffffffffffffffffffffff1681525050905060001515816060015115151461047c576040517f08c379a000000000000000000000000000000000000000000000000000000000815260040161047390611d5a565b60405180910390fd5b6104ab856040516020016104909190611dc2565b60405160208183030381529060405280519060200120610d86565b84146104ec576040517f08c379a00000000000000000000000000000000000000000000000000000000081526004016104e390611e29565b60405180910390fd5b60006104f88585610d11565b9050816000015173ffffffffffffffffffffffffffffffffffffffff168173ffffffffffffffffffffffffffffffffffffffff161461056c576040517f08c379a000000000000000000000000000000000000000000000000000000000815260040161056390611e95565b60405180910390fd5b8573ffffffffffffffffffffffffffffffffffffffff16877fa62bf33e3860a18b08244c1b59b8aa4920be374252eb534e0ab47d5f7a18ca1884602001516040516105b79190611694565b60405180910390a360018088815481106105d4576105d3611cdf565b5b906000526020600020906004020160020160146101000a81548160ff0219169083151502179055506106148260a001518360400151888560200151610dbc565b600192505050949350505050565b600060016040518060c001604052808473ffffffffffffffffffffffffffffffffffffffff1681526020018581526020018673ffffffffffffffffffffffffffffffffffffffff1681526020016000151581526020014264ffffffffff1681526020013373ffffffffffffffffffffffffffffffffffffffff16815250908060018154018082558091505060019003906000526020600020906004020160009091909190915060008201518160000160006101000a81548173ffffffffffffffffffffffffffffffffffffffff021916908373ffffffffffffffffffffffffffffffffffffffff1602179055506020820151816001015560408201518160020160006101000a81548173ffffffffffffffffffffffffffffffffffffffff021916908373ffffffffffffffffffffffffffffffffffffffff16021790555060608201518160020160146101000a81548160ff02191690831515021790555060808201518160020160156101000a81548164ffffffffff021916908364ffffffffff16021790555060a08201518160030160006101000a81548173ffffffffffffffffffffffffffffffffffffffff021916908373ffffffffffffffffffffffffffffffffffffffff16021790555050503373ffffffffffffffffffffffffffffffffffffffff166001808054905061081a9190611ee4565b7f6107654482837de3a93274b07f14e2a9bb194f6dae7f2d816e993033d1074b86856040516108499190611694565b60405180910390a3600180805490506108629190611ee4565b90509392505050565b6000600180549050905090565b6108806112d4565b6001828154811061089457610893611cdf565b5b90600052602060002090600402016040518060c00160405290816000820160009054906101000a900473ffffffffffffffffffffffffffffffffffffffff1673ffffffffffffffffffffffffffffffffffffffff1673ffffffffffffffffffffffffffffffffffffffff168152602001600182015481526020016002820160009054906101000a900473ffffffffffffffffffffffffffffffffffffffff1673ffffffffffffffffffffffffffffffffffffffff1673ffffffffffffffffffffffffffffffffffffffff1681526020016002820160149054906101000a900460ff161515151581526020016002820160159054906101000a900464ffffffffff1664ffffffffff1664ffffffffff1681526020016003820160009054906101000a900473ffffffffffffffffffffffffffffffffffffffff1673ffffffffffffffffffffffffffffffffffffffff1673ffffffffffffffffffffffffffffffffffffffff16815250509050919050565b6040518060400160405280601081526020017f53616665324c696e6b204d6f64756c650000000000000000000000000000000081525081565b60018181548110610a4d57600080fd5b90600052602060002090600402016000915090508060000160009054906101000a900473ffffffffffffffffffffffffffffffffffffffff16908060010154908060020160009054906101000a900473ffffffffffffffffffffffffffffffffffffffff16908060020160149054906101000a900460ff16908060020160159054906101000a900464ffffffffff16908060030160009054906101000a900473ffffffffffffffffffffffffffffffffffffffff16905086565b60606001805480602002602001604051908101604052809291908181526020016000905b82821015610cad57838290600052602060002090600402016040518060c00160405290816000820160009054906101000a900473ffffffffffffffffffffffffffffffffffffffff1673ffffffffffffffffffffffffffffffffffffffff1673ffffffffffffffffffffffffffffffffffffffff168152602001600182015481526020016002820160009054906101000a900473ffffffffffffffffffffffffffffffffffffffff1673ffffffffffffffffffffffffffffffffffffffff1673ffffffffffffffffffffffffffffffffffffffff1681526020016002820160149054906101000a900460ff161515151581526020016002820160159054906101000a900464ffffffffff1664ffffffffff1664ffffffffff1681526020016003820160009054906101000a900473ffffffffffffffffffffffffffffffffffffffff1673ffffffffffffffffffffffffffffffffffffffff1673ffffffffffffffffffffffffffffffffffffffff168152505081526020019060010190610b2b565b50505050905090565b60006020528260005260406000206020528160005260406000208181548110610cde57600080fd5b90600052602060002001600092509250509054906101000a900473ffffffffffffffffffffffffffffffffffffffff1681565b600080610d1e8484611014565b90508091505092915050565b610d44878787876bffffffffffffffffffffffff16610dbc565b50505050505050565b6040518060400160405280600581526020017f302e312e3000000000000000000000000000000000000000000000000000000081525081565b60007f19457468657265756d205369676e6564204d6573736167653a0a33320000000060005281601c52603c6000209050919050565b600073ffffffffffffffffffffffffffffffffffffffff168373ffffffffffffffffffffffffffffffffffffffff1603610eb5578373ffffffffffffffffffffffffffffffffffffffff1663468721a7838360006040518463ffffffff1660e01b8152600401610e2e93929190612025565b6020604051808303816000875af1158015610e4d573d6000803e3d6000fd5b505050506040513d601f19601f82011682018060405250810190610e71919061209b565b610eb0576040517f08c379a0000000000000000000000000000000000000000000000000000000008152600401610ea790612114565b60405180910390fd5b61100e565b60008282604051602401610eca929190612143565b6040516020818303038152906040527fa9059cbb000000000000000000000000000000000000000000000000000000007bffffffffffffffffffffffffffffffffffffffffffffffffffffffff19166020820180517bffffffffffffffffffffffffffffffffffffffffffffffffffffffff838183161783525050505090508473ffffffffffffffffffffffffffffffffffffffff1663468721a78560008460006040518563ffffffff1660e01b8152600401610f8a94939291906121eb565b6020604051808303816000875af1158015610fa9573d6000803e3d6000fd5b505050506040513d601f19601f82011682018060405250810190610fcd919061209b565b61100c576040517f08c379a000000000000000000000000000000000000000000000000000000000815260040161100390612283565b60405180910390fd5b505b50505050565b6000806000611023858561103b565b915091506110308161108c565b819250505092915050565b600080604183510361107c5760008060006020860151925060408601519150606086015160001a9050611070878285856111f2565b94509450505050611085565b60006002915091505b9250929050565b600060048111156110a05761109f611fae565b5b8160048111156110b3576110b2611fae565b5b03156111ef57600160048111156110cd576110cc611fae565b5b8160048111156110e0576110df611fae565b5b03611120576040517f08c379a0000000000000000000000000000000000000000000000000000000008152600401611117906122ef565b60405180910390fd5b6002600481111561113457611133611fae565b5b81600481111561114757611146611fae565b5b03611187576040517f08c379a000000000000000000000000000000000000000000000000000000000815260040161117e9061235b565b60405180910390fd5b6003600481111561119b5761119a611fae565b5b8160048111156111ae576111ad611fae565b5b036111ee576040517f08c379a00000000000000000000000000000000000000000000000000000000081526004016111e5906123ed565b60405180910390fd5b5b50565b6000807f7fffffffffffffffffffffffffffffff5d576e7357a4501ddfe92f46681b20a08360001c111561122d5760006003915091506112cb565b6000600187878787604051600081526020016040526040516112529493929190612438565b6020604051602081039080840390855afa158015611274573d6000803e3d6000fd5b505050602060405103519050600073ffffffffffffffffffffffffffffffffffffffff168173ffffffffffffffffffffffffffffffffffffffff16036112c2576000600192509250506112cb565b80600092509250505b94509492505050565b6040518060c00160405280600073ffffffffffffffffffffffffffffffffffffffff16815260200160008152602001600073ffffffffffffffffffffffffffffffffffffffff168152602001600015158152602001600064ffffffffff168152602001600073ffffffffffffffffffffffffffffffffffffffff1681525090565b6000604051905090565b600080fd5b600080fd5b6000819050919050565b61137c81611369565b811461138757600080fd5b50565b60008135905061139981611373565b92915050565b600073ffffffffffffffffffffffffffffffffffffffff82169050919050565b60006113ca8261139f565b9050919050565b6113da816113bf565b81146113e557600080fd5b50565b6000813590506113f7816113d1565b92915050565b6000819050919050565b611410816113fd565b811461141b57600080fd5b50565b60008135905061142d81611407565b92915050565b600080fd5b600080fd5b6000601f19601f8301169050919050565b7f4e487b7100000000000000000000000000000000000000000000000000000000600052604160045260246000fd5b6114868261143d565b810181811067ffffffffffffffff821117156114a5576114a461144e565b5b80604052505050565b60006114b8611355565b90506114c4828261147d565b919050565b600067ffffffffffffffff8211156114e4576114e361144e565b5b6114ed8261143d565b9050602081019050919050565b82818337600083830152505050565b600061151c611517846114c9565b6114ae565b90508281526020810184848401111561153857611537611438565b5b6115438482856114fa565b509392505050565b600082601f8301126115605761155f611433565b5b8135611570848260208601611509565b91505092915050565b600080600080608085870312156115935761159261135f565b5b60006115a18782880161138a565b94505060206115b2878288016113e8565b93505060406115c38782880161141e565b925050606085013567ffffffffffffffff8111156115e4576115e3611364565b5b6115f08782880161154b565b91505092959194509250565b60008115159050919050565b611611816115fc565b82525050565b600060208201905061162c6000830184611608565b92915050565b60008060006060848603121561164b5761164a61135f565b5b6000611659868287016113e8565b935050602061166a8682870161138a565b925050604061167b868287016113e8565b9150509250925092565b61168e81611369565b82525050565b60006020820190506116a96000830184611685565b92915050565b6000602082840312156116c5576116c461135f565b5b60006116d38482850161138a565b91505092915050565b6116e5816113bf565b82525050565b6116f481611369565b82525050565b611703816115fc565b82525050565b600064ffffffffff82169050919050565b61172381611709565b82525050565b60c08201600082015161173f60008501826116dc565b50602082015161175260208501826116eb565b50604082015161176560408501826116dc565b50606082015161177860608501826116fa565b50608082015161178b608085018261171a565b5060a082015161179e60a08501826116dc565b50505050565b600060c0820190506117b96000830184611729565b92915050565b600081519050919050565b600082825260208201905092915050565b60005b838110156117f95780820151818401526020810190506117de565b60008484015250505050565b6000611810826117bf565b61181a81856117ca565b935061182a8185602086016117db565b6118338161143d565b840191505092915050565b600060208201905081810360008301526118588184611805565b905092915050565b611869816113bf565b82525050565b61187881611709565b82525050565b600060c0820190506118936000830189611860565b6118a06020830188611685565b6118ad6040830187611860565b6118ba6060830186611608565b6118c7608083018561186f565b6118d460a0830184611860565b979650505050505050565b600081519050919050565b600082825260208201905092915050565b6000819050602082019050919050565b60c08201600082015161192160008501826116dc565b50602082015161193460208501826116eb565b50604082015161194760408501826116dc565b50606082015161195a60608501826116fa565b50608082015161196d608085018261171a565b5060a082015161198060a08501826116dc565b50505050565b6000611992838361190b565b60c08301905092915050565b6000602082019050919050565b60006119b6826118df565b6119c081856118ea565b93506119cb836118fb565b8060005b838110156119fc5781516119e38882611986565b97506119ee8361199e565b9250506001810190506119cf565b5085935050505092915050565b60006020820190508181036000830152611a2381846119ab565b905092915050565b600080600060608486031215611a4457611a4361135f565b5b6000611a52868287016113e8565b9350506020611a63868287016113e8565b9250506040611a748682870161138a565b9150509250925092565b6000602082019050611a936000830184611860565b92915050565b60008060408385031215611ab057611aaf61135f565b5b6000611abe8582860161141e565b925050602083013567ffffffffffffffff811115611adf57611ade611364565b5b611aeb8582860161154b565b9150509250929050565b6000611b00826113bf565b9050919050565b611b1081611af5565b8114611b1b57600080fd5b50565b600081359050611b2d81611b07565b92915050565b6000611b3e8261139f565b9050919050565b611b4e81611b33565b8114611b5957600080fd5b50565b600081359050611b6b81611b45565b92915050565b60006bffffffffffffffffffffffff82169050919050565b611b9281611b71565b8114611b9d57600080fd5b50565b600081359050611baf81611b89565b92915050565b600080600080600080600060e0888a031215611bd457611bd361135f565b5b6000611be28a828b01611b1e565b9750506020611bf38a828b016113e8565b9650506040611c048a828b01611b5c565b9550506060611c158a828b01611ba0565b9450506080611c268a828b016113e8565b93505060a0611c378a828b01611ba0565b92505060c088013567ffffffffffffffff811115611c5857611c57611364565b5b611c648a828b0161154b565b91505092959891949750929550565b7f4445504f53495420494e44455820444f4553204e4f5420455849535400000000600082015250565b6000611ca9601c836117ca565b9150611cb482611c73565b602082019050919050565b60006020820190508181036000830152611cd881611c9c565b9050919050565b7f4e487b7100000000000000000000000000000000000000000000000000000000600052603260045260246000fd5b7f4445504f53495420414c52454144592057495448445241574e00000000000000600082015250565b6000611d446019836117ca565b9150611d4f82611d0e565b602082019050919050565b60006020820190508181036000830152611d7381611d37565b9050919050565b60008160601b9050919050565b6000611d9282611d7a565b9050919050565b6000611da482611d87565b9050919050565b611dbc611db7826113bf565b611d99565b82525050565b6000611dce8284611dab565b60148201915081905092915050565b7f48415348455320444f204e4f54204d4154434800000000000000000000000000600082015250565b6000611e136013836117ca565b9150611e1e82611ddd565b602082019050919050565b60006020820190508181036000830152611e4281611e06565b9050919050565b7f57524f4e47205349474e41545552450000000000000000000000000000000000600082015250565b6000611e7f600f836117ca565b9150611e8a82611e49565b602082019050919050565b60006020820190508181036000830152611eae81611e72565b9050919050565b7f4e487b7100000000000000000000000000000000000000000000000000000000600052601160045260246000fd5b6000611eef82611369565b9150611efa83611369565b9250828203905081811115611f1257611f11611eb5565b5b92915050565b6000819050919050565b6000611f3d611f38611f338461139f565b611f18565b61139f565b9050919050565b6000611f4f82611f22565b9050919050565b6000611f6182611f44565b9050919050565b611f7181611f56565b82525050565b600082825260208201905092915050565b50565b6000611f98600083611f77565b9150611fa382611f88565b600082019050919050565b7f4e487b7100000000000000000000000000000000000000000000000000000000600052602160045260246000fd5b60028110611fee57611fed611fae565b5b50565b6000819050611fff82611fdd565b919050565b600061200f82611ff1565b9050919050565b61201f81612004565b82525050565b600060808201905061203a6000830186611f68565b6120476020830185611685565b818103604083015261205881611f8b565b90506120676060830184612016565b949350505050565b612078816115fc565b811461208357600080fd5b50565b6000815190506120958161206f565b92915050565b6000602082840312156120b1576120b061135f565b5b60006120bf84828501612086565b91505092915050565b7f436f756c64206e6f742065786563757465206574686572207472616e73666572600082015250565b60006120fe6020836117ca565b9150612109826120c8565b602082019050919050565b6000602082019050818103600083015261212d816120f1565b9050919050565b61213d81611b33565b82525050565b60006040820190506121586000830185612134565b6121656020830184611685565b9392505050565b6000819050919050565b600061219161218c6121878461216c565b611f18565b611369565b9050919050565b6121a181612176565b82525050565b600081519050919050565b60006121bd826121a7565b6121c78185611f77565b93506121d78185602086016117db565b6121e08161143d565b840191505092915050565b60006080820190506122006000830187611860565b61220d6020830186612198565b818103604083015261221f81856121b2565b905061222e6060830184612016565b95945050505050565b7f436f756c64206e6f74206578656375746520746f6b656e207472616e73666572600082015250565b600061226d6020836117ca565b915061227882612237565b602082019050919050565b6000602082019050818103600083015261229c81612260565b9050919050565b7f45434453413a20696e76616c6964207369676e61747572650000000000000000600082015250565b60006122d96018836117ca565b91506122e4826122a3565b602082019050919050565b60006020820190508181036000830152612308816122cc565b9050919050565b7f45434453413a20696e76616c6964207369676e6174757265206c656e67746800600082015250565b6000612345601f836117ca565b91506123508261230f565b602082019050919050565b6000602082019050818103600083015261237481612338565b9050919050565b7f45434453413a20696e76616c6964207369676e6174757265202773272076616c60008201527f7565000000000000000000000000000000000000000000000000000000000000602082015250565b60006123d76022836117ca565b91506123e28261237b565b604082019050919050565b60006020820190508181036000830152612406816123ca565b9050919050565b612416816113fd565b82525050565b600060ff82169050919050565b6124328161241c565b82525050565b600060808201905061244d600083018761240d565b61245a6020830186612429565b612467604083018561240d565b612474606083018461240d565b9594505050505056fea2646970667358221220781a920675955f9ecaeddaa96ed5569f4356523739ff1c1616e8aa8f37e4d80e64736f6c63430008130033",
  "linkReferences": {},
  "deployedLinkReferences": {}
}